:10000000F028002025230000A9230000A9230000D8
:1000100000000000000000000000000000000000E0
:10002000000000000000000000000000A923000004
:100030000000000000000000A9230000A923000028
:10004000A9230000F5220000A9230000450B0000B1
:10005000A9230000A9230000A9230000A923000070
:10006000A9230000F50D0000490F00009D100000BD
:10007000F11100005D130000B1140000A92300007D
:10008000451A0000A9230000A9230000A9230000AD
:10009000A9230000A9230000A9230000A923000030
:1000A000A9230000A923000010B5064C2378002BDB
:1000B00007D1054B002B02D0044800E000BF01230C
:1000C000237010BDA006002000000000D4610000D5
:1000D000084B10B5002B03D00749084800E000BFCB
:1000E00007480368002B00D110BD064B002BFBD046
:1000F0009847F9E700000000A4060020D461000042
:10010000D46100000000000080B500AF0F4B98479D
:100110000F4B8E221A75C0460D4BDB68DB06DB0FDA
:10012000DBB2002BF8D00B4B01221A71094B0822CD
:100130009A71094B0622FF321A62074B074A5A622C
:10014000054B074A9A62C046BD4680BDB1230000F8
:100150000010004000080040001C00400501F401B0
:100160000501020080B500AF154A84234121D1501A
:10017000144B154ADA62134B22221A63114A2823C0
:100180000221D154C0460F4A3C23D35CDB07DB0F6E
:10019000DBB2002B07D10B4A3C23D35C9B07DB0F60
:1001A000DBB2002BEFD0094B084A526802210A4308
:1001B0005A60034B064A1A62C046BD4680BDC0461F
:1001C000001C004000100040E70300000040004118
:1001D00007010100F0B583B000AF05000C0010006E
:1001E0001900FB1D2A1C1A70BB1D221C1A707B1DD6
:1001F000021C1A703B1D0A1C1A707B1D1B78002BF9
:100200000CD06649FB1D1B78BA1D12780120904066
:100210000200DB01CB1808331A600BE05F49FB1DBD
:100220001B78BA1D1278012090400200DB01CB1828
:1002300004331A603B1D1B78002B0CD05749FB1D63
:100240001B78BA1D1278012090400200DB01CB1808
:1002500018331A600BE05149FB1D1B78BA1D127848
:10026000012090400200DB01CB1814331A602023D8
:10027000FB181B78002B1BD0484CFB1D1A78BB1DAC
:100280001B78464EF91D0878B91D09784025C00134
:100290003018411849190978C9B204200143C8B27D
:1002A0004021D201A218D3185B18021C1A701AE060
:1002B0003A4CFB1D1A78BB1D1B78384EF91D087887
:1002C000B91D09784025C00130184118491909782D
:1002D000C9B204208143C8B24021D201A218D31868
:1002E0005B18021C1A702423FB181B78002B1BD0F0
:1002F0002A4CFB1D1A78BB1D1B78284EF91D087867
:10030000B91D09784025C0013018411849190978EC
:10031000C9B201200143C8B24021D201A218D318AA
:100320005B18021C1A701AE01C4CFB1D1A78BB1DCE
:100330001B781A4EF91D0878B91D09784025C001AF
:100340003018411849190978C9B201208143C8B24F
:100350004021D201A218D3185B18021C1A700F4C4E
:10036000FB1D1A78BB1D1B780C4EF91D0878B91DB2
:1003700009784025C0013018411849190978C9B2D7
:1003800002200143C8B24021D201A218D3185B1841
:10039000021C1A70C046BD4603B0F0BD00600041AB
:1003A00090B583B000AF040008001100FB1D221CB3
:1003B0001A70BB1D021C1A707B1D0A1C1A707B1D53
:1003C0001B78002B0CD00E49FB1D1B78BA1D127830
:1003D000012090400200DB01CB1818331A600BE0BB
:1003E0000749FB1D1B78BA1D1278012090400200BE
:1003F000DB01CB1814331A60C046BD4603B090BD74
:100400000060004180B582B000AF0200FB1D1A7091
:10041000BB1D0A1C1A700A4AFB1D1B78DB01D3188E
:1004200020331B68BA1D1278012191400A00134045
:1004300001D0012300E000231800BD4602B080BDBA
:100440000060004190B583B000AF040008001100C7
:10045000FB1D221C1A70BB1D021C1A707B1D0A1C7E
:100460001A70BB1D1B78012213401AD01C48FB1DBB
:100470001B78BA1D12785208D2B214007A1D127875
:100480000F210A40D1B23022DB01C3181B199A1880
:10049000137808010F210B40191C031C0B43137028
:1004A0001AE00F48FB1D1B78BA1D12785208D2B211
:1004B00014007A1D12780F210A40D1B23022DB01DC
:1004C000C3181B199A1813780F2008400F218B436B
:1004D000191C031C0B431370C046BD4603B090BDEE
:1004E0000060004180B582B000AF7860044B7A684C
:1004F0001A60044B9847C046BD4602B080BDC04656
:10050000BC060020B107000080B582B000AF786063
:10051000094B1B78002B0BD0084B9847084B1B68E6
:100520007A6811001800074B9847074B984700E07E
:10053000C046BD4602B080BDC006002029080000AC
:10054000BC060020751E00008108000080B582B046
:1005500000AF78603960104B1B78002B18D00F4B20
:1005600098470F4B1B687A68110018000D4B98478D
:100570000B4B1B68202118000B4B9847084B1B683E
:100580003A6811001800094B9847094B984700E05A
:10059000C046BD4602B080BDC0060020290800004C
:1005A000BC060020751E0000111F0000DD1E0000AB
:1005B00081080000B0B58AB000AFB860F9607A6019
:1005C000684B1B78002B00D1C7E001231D1C664C33
:1005D00000220023B868F968A047031E01D1002358
:1005E0001D1CEAB22723FB181A702723FB181B785F
:1005F000002B06D0BB68BB60FB688022120653400C
:10060000FB605A4BB868F968984703003B62584B47
:10061000386A984702000B00564CB868F968A04742
:1006200003000C00BB61FC61534C0022534BB868C3
:10063000F968A04703000C00190022004B4B08008A
:100640001100984703007B614D4B98472723FB1807
:100650001B78002B06D04B4B1B684B4A110018002F
:100660004A4B9847474B1B683A6A11001800484BA1
:100670009847444B1B68474A11001800434B984762
:100680003D4C0022444BB869F969A04703000C00B7
:1006900019002200354B080011009847031E4BD16A
:1006A000384B1B683D4A11001800384B9847324CB4
:1006B00000223B4BB869F969A04703000C00190000
:1006C00022002A4B080011009847031E34D12D4BFD
:1006D0001B68324A110018002C4B9847264C002208
:1006E000304BB869F969A04703000C0019002200DB
:1006F0001E4B080011009847031E1DD1214B1B689B
:10070000264A11001800214B98471B4C0022264B0B
:10071000B869F969A04703000C0019002200134BC7
:10072000080011009847031E06D1164B1B681B4A90
:1007300011001800154B9847124B1B687A6911007D
:100740001800134B98470F4B1B687A68110018006C
:100750000E4B9847154B984700E0C046BD460AB07F
:10076000B0BDC046C0060020753F000059400000E3
:10077000315C00009D5500009D500000D012634187
:1007800029080000BC0600206C5E0000751E0000F9
:10079000A91E0000705E000000002440745E00008E
:1007A0000000594000408F400088C340810800008D
:1007B00080B500AF144B1B6820211800134B9847DD
:1007C000114B1B68124A11001800124B98470E4B30
:1007D0001B68114A110018000E4B98470A4B1B6802
:1007E0000B4A110018000B4B9847074B1B680B4A2C
:1007F00011001800074B9847094B9847094B0122F5
:100800001A70C046BD4680BDBC060020111F000006
:10081000785E0000751E0000845E0000B05E00007F
:1008200081080000C006002080B500AF0E4B1B6899
:100830000E4A110018000E4B98470B4B18680D4BD1
:100840001B685A1C0B4B1A600A4B1B6819000A4B99
:100850009847054B1B68094A11001800044B98473C
:10086000C046BD4680BDC046BC060020E45E000018
:10087000751E0000C4060020A91E0000E85E0000EE
:1008800080B500AF044B1B68044A11001800044BEC
:100890009847C046BD4680BDBC060020EC5E000007
:1008A000751E000080B582B000AF0200FB1D1A70FB
:1008B000064BFA1D127811001F220A4001219140B7
:1008C0000A001A60C046BD4602B080BD00E100E0EB
:1008D00090B587B002AF7860234B1B68FB60FB6864
:1008E000002B06D1204B7A681A6009E0FB689B68F0
:1008F000FB60FB689B68002BF8D1FB687A689A6004
:100900007B6800229A607B6801221A707B689B7862
:10091000FF2B24D07B6898787B68D97801230193DA
:100920000123009301230022104CA0477B68987894
:100930007B68DB78002219000D4B98477B689A781A
:100940007B68DB78190010000A4B984703001A00F7
:100950007B685A707B681800074B984700E0C046D8
:10096000BD4605B090BDC046C8060020D5010000B8
:100970004504000005040000A109000080B584B012
:1009800000AF78607B685B68FB60FB68002B03D07E
:100990007A68FB6810009847C046BD4604B080BD29
:1009A00090B585B000AF7860394B394A52698021E3
:1009B000C9000A435A61374A8C234021D1507B68D1
:1009C000DA780E23FB180F210A401A700E23FB1849
:1009D0001B78072B04D80F23FB1800221A7003E0A2
:1009E0000F23FB1801221A700E23FB181B78072215
:1009F0001340DAB20D23FB1892001A7026480F2319
:100A0000FB181978244A0F23FB181B7806339B0028
:100A1000D31804331B680D22BA18127808249440A6
:100A200022001A438B1D9B00C31804331A601A4816
:100A30000F23FB181978184A0F23FB181B7806336D
:100A40009B00D31804331B680D22BA1812780324B4
:100A5000944022001A438B1D9B00C31804331A6074
:100A60000D4B0D4A12690E21791809780120884032
:100A700001000A431A61084A137802210B431370DC
:100A80000320064B9847C046BD4605B090BDC04602
:100A900000080040001C004000280040A50800009D
:100AA00090B583B000AF224B1B687B60214B1B7855
:100AB000DBB2002B38D02BE07B689B78FF2B0BD16F
:100AC0007B685B78032B20D17B6800225A707B689F
:100AD0001800194B984718E07B689A787B68DB7898
:100AE000FC1C19001000154B9847030023707B680D
:100AF0005B78FA1C12789A4207D07B68FA1C12784D
:100B00005A707B6818000C4B98477B689B687B6029
:100B10007B68002BD0D1074B00221A70084A13784B
:100B200002210B43137000E0C046BD4603B090BDE8
:100B3000C8060020CC0600207D0900000504000046
:100B40000028004080B500AF064A137802218B438D
:100B50001370044B044A5A61044B01221A70C046B8
:100B6000BD4680BD00280040FFFF0000CC060020ED
:100B700080B582B000AF0200FB1D1A70064BFA1D53
:100B8000127811001F220A40012191400A001A60C8
:100B9000C046BD4602B080BD00E100E080B582B035
:100BA00000AF02003960FB1D1A70FB1D1B78052B7E
:100BB0004ED8294B1B78002B01D1284B9847FB1DA1
:100BC0001A7827491300DB009B1A9B0001225A5414
:100BD000FB1D1A7822491300DB009B1A9B00CB18DF
:100BE00010333A681A60FB1D1A781D491300DB00A8
:100BF0009B1A9B00CB18143300221A60FB1D1A7835
:100C000017491300DB009B1A9B00CB18043300220A
:100C10001A60FB1D1A7812491300DB009B1A9B0017
:100C2000CB18083300221A60FB1D1A780C491300F8
:100C3000DB009B1A9B00CB180C3300221A60FB1DB3
:100C40001B780733DBB25BB21800064B984700E015
:100C5000C046BD4602B080BDD0060020AD0D0000EC
:100C6000D4060020710B000080B584B000AFB960DD
:100C70007A603B600F23FB18021C1A700F23FB18CD
:100C80001B78052B61D8334B1B78002B01D1324BDD
:100C900098470F23FB181A7830491300DB009B1A82
:100CA0009B0002225A540F23FB181A782B49130079
:100CB000DB009B1A9B00CB181033BA681A600F2315
:100CC000FB181A7825491300DB009B1A9B00CB18F0
:100CD00014337A681A600F23FB181A781F4913001F
:100CE000DB009B1A9B00CB1804333A681A600F2371
:100CF000FB181A7819491300DB009B1A9B00CB18CC
:100D00000833BA691A600F23FB181A7813491300C5
:100D1000DB009B1A9B00CB180C33FA691A600F2377
:100D2000FB181A780D491300DB009B1A9B00CB18A7
:100D3000193300221A700F23FB181B780933DBB21A
:100D40005BB21800064B984700E0C046BD4604B0B1
:100D500080BDC046D0060020AD0D0000D4060020A6
:100D6000710B000080B582B000AF0200FB1D1A704D
:100D7000FB1D1A78034B9200D3581800BD4602B0F1
:100D800080BDC0460000002080B582B000AF0200E8
:100D9000FB1D1A70FB1D1A78034B9200D3581800E4
:100DA000BD4602B080BDC0461800002080B582B0AC
:100DB00000AFBB1D00221A800DE0BB1D1A880B4935
:100DC0001300DB009B1A9B0000225A54BB1D1A889B
:100DD000BB1D01321A80BB1D1B88052BEDD9044BAE
:100DE00001221A70C046BD4602B080BDD406002064
:100DF000D006002080B586B000AF504B7B617B6988
:100E00001B78012B04D000DC8EE0022B3BD090E05D
:100E10004B4B1B7EDBB23B613B690422134000D18C
:100E200084E0474B1B8D9AB20F23FB181A707B6925
:100E30001B69BB60FB1D0F22BA1812781A70BB68C1
:100E40001B78022B00D171E0BB689A68BB689B8855
:100E5000591C88B2B9688880D318FA1D12781A70A4
:100E6000BB689A88BB685B889A4202D3BB68002241
:100E70009A80BB689A88BB68DB889A4256D1BB6867
:100E800002221A7052E02E4B1B7EDBB23B613B69A3
:100E9000022213400BD07B699B681A887B69DB6850
:100EA0001B889A4203D1274A98231021D1503B69CD
:100EB000012213401CD07B699B681A887B69DB6820
:100EC0001B889A4211D21E4A7B6959687B699B68CC
:100ED0001B88CB181B7893627B699A687B699B6837
:100EE0001B8801339BB2138002E0154B01221A7557
:100EF0003B69042213401BD0114B9A6A0F23FB1845
:100F00001A707B691A697B695B691B88D3180F2289
:100F1000BA1812781A707B695A697B695B691B88F9
:100F200001339BB2138003E0C04602E0C04600E0FC
:100F3000C046C046BD4606B080BDC046D4060020AF
:100F4000000400420060004180B586B000AF504B05
:100F50007B617B691B78012B04D000DC8EE0022BC7
:100F60003BD090E04B4B1B7EDBB23B613B690422E4
:100F7000134000D184E0474B1B8D9AB20F23FB181E
:100F80001A707B691B69BB60FB1D0F22BA181278AF
:100F90001A70BB681B78022B00D171E0BB689A689D
:100FA000BB689B88591C88B2B9688880D318FA1D21
:100FB00012781A70BB689A88BB685B889A4202D321
:100FC000BB6800229A80BB689A88BB68DB889A421B
:100FD00056D1BB6802221A7052E02E4B1B7EDBB248
:100FE0003B613B69022213400BD07B699B681A88E6
:100FF0007B69DB681B889A4203D1274A982310211A
:10100000D1503B69012213401CD07B699B681A8830
:101010007B69DB681B889A4211D21E4A7B6959683A
:101020007B699B681B88CB181B7893627B699A68E5
:101030007B699B681B8801339BB2138002E0154BD0
:1010400001221A753B69042213401BD0114B9A6A86
:101050000F23FB181A707B691A697B695B691B880F
:10106000D3180F22BA1812781A707B695A697B69F3
:101070005B691B8801339BB2138003E0C04602E02A
:10108000C04600E0C046C046BD4606B080BDC04672
:10109000F0060020000800420060004180B586B0E4
:1010A00000AF504B7B617B691B78012B04D000DCC7
:1010B0008EE0022B3BD090E04B4B1B7EDBB23B61C2
:1010C0003B690422134000D184E0474B1B8D9AB248
:1010D0000F23FB181A707B691B69BB60FB1D0F2275
:1010E000BA1812781A70BB681B78022B00D171E015
:1010F000BB689A68BB689B88591C88B2B9688880AD
:10110000D318FA1D12781A70BB689A88BB685B887E
:101110009A4202D3BB6800229A80BB689A88BB6857
:10112000DB889A4256D1BB6802221A7052E02E4BDD
:101130001B7EDBB23B613B69022213400BD07B6913
:101140009B681A887B69DB681B889A4203D1274A0F
:1011500098231021D1503B69012213401CD07B6998
:101160009B681A887B69DB681B889A4211D21E4AE9
:101170007B6959687B699B681B88CB181B789362D5
:101180007B699A687B699B681B8801339BB21380DB
:1011900002E0154B01221A753B69042213401BD053
:1011A000114B9A6A0F23FB181A707B691A697B69C5
:1011B0005B691B88D3180F22BA1812781A707B69E2
:1011C0005A697B695B691B8801339BB2138003E01A
:1011D000C04602E0C04600E0C046C046BD4606B07C
:1011E00080BDC0460C070020000C0042006000419A
:1011F00080B586B000AF564B7B617B691B78012BB5
:1012000004D000DC9AE0022B3BD09CE0514B1B7ECB
:10121000DBB23B613B690422134000D190E04D4BAF
:101220001B8D9AB20F23FB181A707B691B69BB6078
:10123000FB1D0F22BA1812781A70BB681B78022B9C
:1012400000D17DE0BB689A68BB689B88591C88B256
:10125000B9688880D318FA1D12781A70BB689A880A
:10126000BB685B889A4202D3BB6800229A80BB6845
:101270009A88BB68DB889A4262D1BB6802221A70E6
:101280005EE0344B1B7EDBB23B613B6902221340C4
:1012900017D03B69022213400BD07B699B681A88E8
:1012A0007B69DB681B889A4203D12B4A9823102163
:1012B000D150284A274B1B7EDBB202210B43DBB205
:1012C00013763B69012213401CD07B699B681A8806
:1012D0007B69DB681B889A4211D21E4A7B69596878
:1012E0007B699B681B88CB181B7893627B699A6823
:1012F0007B699B681B8801339BB2138002E0154B0E
:1013000001221A753B69042213401BD0114B9A6AC3
:101310000F23FB181A707B691A697B695B691B884C
:10132000D3180F22BA1812781A707B695A697B6930
:101330005B691B8801339BB2138003E0C04602E067
:10134000C04600E0C046C046BD4606B080BDC046AF
:1013500028070020001000420060004180B586B0E0
:1013600000AF504B7B617B691B78012B04D000DC04
:101370008EE0022B3BD090E04B4B1B7EDBB23B61FF
:101380003B690422134000D184E0474B1B8D9AB285
:101390000F23FB181A707B691B69BB60FB1D0F22B2
:1013A000BA1812781A70BB681B78022B00D171E052
:1013B000BB689A68BB689B88591C88B2B9688880EA
:1013C000D318FA1D12781A70BB689A88BB685B88BC
:1013D0009A4202D3BB6800229A80BB689A88BB6895
:1013E000DB889A4256D1BB6802221A7052E02E4B1B
:1013F0001B7EDBB23B613B69022213400BD07B6951
:101400009B681A887B69DB681B889A4203D1274A4C
:1014100098231021D1503B69012213401CD07B69D5
:101420009B681A887B69DB681B889A4211D21E4A26
:101430007B6959687B699B681B88CB181B78936212
:101440007B699A687B699B681B8801339BB2138018
:1014500002E0154B01221A753B69042213401BD090
:10146000114B9A6A0F23FB181A707B691A697B6902
:101470005B691B88D3180F22BA1812781A707B691F
:101480005A697B695B691B8801339BB2138003E057
:10149000C04602E0C04600E0C046C046BD4606B0B9
:1014A00080BDC04644070020001400420060004197
:1014B00080B586B000AF504B7B617B691B78012BF8
:1014C00004D000DC8EE0022B3BD090E04B4B1B7E27
:1014D000DBB23B613B690422134000D184E0474BFF
:1014E0001B8D9AB20F23FB181A707B691B69BB60B6
:1014F000FB1D0F22BA1812781A70BB681B78022BDA
:1015000000D171E0BB689A68BB689B88591C88B29F
:10151000B9688880D318FA1D12781A70BB689A8847
:10152000BB685B889A4202D3BB6800229A80BB6882
:101530009A88BB68DB889A4256D1BB6802221A702F
:1015400052E02E4B1B7EDBB23B613B690222134013
:101550000BD07B699B681A887B69DB681B889A4281
:1015600003D1274A98231021D1503B69012213400F
:101570001CD07B699B681A887B69DB681B889A4250
:1015800011D21E4A7B6959687B699B681B88CB18FE
:101590001B7893627B699A687B699B681B8801331F
:1015A0009BB2138002E0154B01221A753B6904229D
:1015B00013401BD0114B9A6A0F23FB181A707B69DA
:1015C0001A697B695B691B88D3180F22BA181278D5
:1015D0001A707B695A697B695B691B8801339BB20E
:1015E000138003E0C04602E0C04600E0C046C046AB
:1015F000BD4606B080BDC04660070020001800420E
:101600000060004180B584B000AF78607B681B78D3
:10161000002B03D17B6818001C4B98477B681B7814
:10162000022B05D10E23FB187A6852881A8025E018
:101630007B689A887B68DB889A4208D97B6899889E
:101640007B68DA880E23FB188A1A1A8016E07B68FA
:101650009A887B68DB889A420CD27B685A887B68C0
:10166000DB88D31A99B27B689A880E23FB188A18F4
:101670001A8003E00E23FB1800221A800E23FB18A9
:101680001B881800BD4604B080BDC0462917000065
:1016900080B582B000AF78600A00BB1C1A807B68FE
:1016A0001B78002B03D17B6818001D4B9847BB1C8F
:1016B0001B88002B09D07B6818001A4B9847030041
:1016C0001A00BB1C1B88934204D37B689A887B68F2
:1016D000DA801EE07B68DB881A00BB1C1B88D318ED
:1016E0007A685288934208DA7B68DA88BB1C1B88C8
:1016F000D3189AB27B68DA800BE07B68DA887B6863
:101700005B88D31A9AB2BB1C1B88D3189AB27B6829
:10171000DA807B6801221A70C046BD4602B080BDE7
:10172000291700000516000080B582B000AF786070
:101730007B6801221A707B6800229A807B680022F5
:10174000DA80C046BD4602B080BD000080B582B0E0
:1017500000AF0200FB1D1A70064BFA1D1278110033
:101760001F220A40012191400A001A60C046BD466E
:1017700002B080BD00E100E080B584B000AFF86049
:10178000B9603B60FB1D1A70134B1B78002B01D115
:10179000124B9847FB681800114B9847FB68BA68D2
:1017A0005A60FB683A68DA60FB6801221A70FB1D18
:1017B0001B78002B01D0BA6800E00022FB689A6019
:1017C000084B1B78002B02D10120074B9847C046DD
:1017D000BD4604B080BDC0467C0700208D180000C7
:1017E000ED1700007D0700200119000080B584B0CE
:1017F00000AF78607B681800104B9847031E18D123
:101800007B6800221A610E4B1B68FB60FB68002B93
:101810000BD002E0FB681B69FB60FB681B69002BB7
:10182000F8D1FB687A681A6104E0054B7A681A609F
:1018300000E0C046BD4604B080BDC046451800006B
:101840008007002080B584B000AF78600E4B1B6825
:10185000FB60FB68002B11D0FA687B689A420AD1C2
:1018600001230CE0FA687B689A4201D1012306E06B
:10187000FB681B69FB60FB68002BF3D10023180099
:10188000BD4604B080BDC0468007002080B500AFD3
:10189000164B164AD269802149000A43DA61144A7C
:1018A000DC234021D150C046114ADC23D3585B06CB
:1018B000DB0FDBB2002BF7D00E4BA422D2001A6054
:1018C0000C4A0C4B1B7BDBB201210B43DBB21373C5
:1018D000084A537A10210B4353721020064B984745
:1018E000064B01221A70C046BD4680BD000800406C
:1018F000001C0040002000424D1700007C07002023
:1019000080B582B000AF0200FB1D1A700F4A136849
:1019100002218B4313600D4B0D4A9A830B4B00221F
:101920009A820C4B00221A700B4BFA1D12781A7017
:10193000FB1D1B78002B04D0044A136802210B43C3
:101940001360C046BD4602B080BDC04600200042C4
:1019500088130000840700207D07002080B584B034
:1019600000AF354B1B78DBB2002B60D0334B1B68CC
:10197000FB600A23FB18304A12781A702E4B1B7832
:10198000DAB20A23FB181B78D31ADAB22A4B1A7080
:101990000B23FB1800221A703DE0FB681B78012B1B
:1019A00036D10B23FB181A780B23FB1801321A705F
:1019B000FB6859680A23FB181A7813009B009B18D0
:1019C0005B0099420CD9FB6859680A23FB181A7806
:1019D00013009B009B185B00CA1AFB685A6017E053
:1019E000FB6802221A70FB68DB687B607B68002B57
:1019F00003D0FA687B6810009847FB689B68002B4F
:101A000006D0FB689A68FB685A60FB6801221A706E
:101A1000FB681B69FB60FB68002BBED10B23FB1826
:101A20001B78002B04D10020054B984700E0C046EE
:101A3000BD4604B080BDC04684070020800700205A
:101A40000119000080B500AF084A084B9B7ADBB251
:101A500031210B43DBB29372054B1B78DBB20133B0
:101A6000DAB2034B1A70C046BD4680BD002000426A
:101A70008407002080B582B000AF78607B681B7857
:101A8000002B14D17B6818000B4B98477B680B4ADE
:101A9000002199527A6881239B000021D1527B68F2
:101AA000074A002199527B6801221A7000E0C04663
:101AB000BD4602B080BDC046811B0000020200008E
:101AC0000602000080B582B000AF78600800110007
:101AD000FB1C021C1A70BB1C0A1C1A70BB1C1B7856
:101AE000002B08D07A6881239B000021D1527B68AB
:101AF0000A4A002199527B68084A9B5A5A1C90B2A4
:101B00007A68064950521A007B689B18FA1C1278B2
:101B10009A73C046BD4602B080BDC04602020000B6
:101B200080B584B000AF78607B685B7B1800124B97
:101B300098470300FB607B68104A002199527A683D
:101B400081239B00D35A5A1C90B27968812292005B
:101B500088521A007B689B189B7B1A00FB689A626C
:101B6000FB689B7DDBB201221343DAB2FB689A75F6
:101B7000C046BD4604B080BD890D000006020000CD
:101B8000F0B587B002AF78607B685B7BFF2B00D13C
:101B900036E17B685B78012B0CD17B6898787B6899
:101BA000D978012301930023009300230122964C4E
:101BB000A0470FE07B685B78002B0BD17B6898789F
:101BC0007B68D9780123019300230093002300222E
:101BD0008D4CA0477B6898787B68D9787B681B7BA5
:101BE0001A008A4B98477B685B78012B0CD17B6885
:101BF00018797B685979012301930023009300230E
:101C00000022814CA0470BE07B6818797B685979EA
:101C10000123019300230093002301227A4CA04763
:101C20007B6818797B6859797B681B7B1A00774B36
:101C300098477B685B78012B0CD17B6898797B682F
:101C4000D9790123019300230093002300226E4CD5
:101C5000A0470BE07B6898797B68D97901230193D1
:101C60000023009300230122674CA0477B689879EA
:101C70007B68D9797B681B7B1A00644B98477B682B
:101C80005B78012B14D17B68187A7B68597A012321
:101C9000019300230093012300225B4CA0477B6843
:101CA000187A7B68597A7B681B7B1A00574B9847D8
:101CB000574A7B685B7B103320339B00422199504D
:101CC000534ABC234121D150524AD36910210B43BE
:101CD000D3617B685B7B18004F4B98470300FB6028
:101CE000C046FB68DB69DB07DB0FDBB2002BF8D1FA
:101CF000FB681B6801221A43FB681A60C046FB6838
:101D0000DB69DB07DB0FDBB2002BF8D17B685B788C
:101D1000012B03D1FB6808221A6002E0FB680C2249
:101D20001A60FB681A687B68DB7A1B041900C02301
:101D30009B0219407B689B7A1B051800C0239B03FC
:101D400003400B431343C02292051A43FB681A60F9
:101D50007B685B78022B06D1FB685B6840221A43E4
:101D6000FB685A6005E0FB685B682C4A1A43FB6815
:101D70005A60FB683022002199547B685B78012B04
:101D800003D1FB6806229A7502E0FB6806229A7569
:101D90007B68587B7B680933FF3319007B68204AD6
:101DA0009C187B680E331D007B688122920094464C
:101DB00063447A681B4EB4466244019200932B0040
:101DC0002200194CA0477B685B78012B02D0FB688E
:101DD00004221A73C046FB68DB69DB07DB0FDBB24A
:101DE000002BF8D1FB68DB699B07DB0FDBB2002B14
:101DF000F1D1FB681B6802221A43FB681A6000E0FD
:101E0000C046BD4605B0F0BDD50100004504000048
:101E1000001C004000080040890D00004000020046
:101E20000602000002020000690C000080B582B0CA
:101E300000AF78607B6818000B4B98477B685B7835
:101E4000002B09D07B681B6900211800074B9847BD
:101E50007B681800064B98477B6801221A70C046C1
:101E6000BD4602B080BDC046711F00009116000043
:101E7000A920000080B582B000AF7860396008E02A
:101E80003B685A1C3A601A787B6811001800054BB1
:101E900098473B681B78002BF2D1C046BD4602B084
:101EA00080BDC046111F000080B584B000AF7860CF
:101EB00039603B681800074B98470300FB60FA68DD
:101EC0007B6811001800044B9847C046BD4604B01B
:101ED00080BDC04691210000751E000080B584B011
:101EE00000AF786039603B681800074B98470300E3
:101EF000FB60FA687B6811001800044B9847C046E5
:101F0000BD4604B080BDC04639220000751E0000E9
:101F100080B582B000AF78600A00FB1C1A707B6845
:101F20005B7BFF2B0AD10F4B1B68002B16D00D4B90
:101F30001B68FA1C1278100098470FE07B681B782A
:101F4000002B03D17B681800074B9847FB1C1A78BD
:101F50007B6811001800054B984700E0C046BD465D
:101F600002B080BD880700202D1E00003121000036
:101F7000F0B589B002AF78607B689B681B011D00DB
:101F800000231E003E4C3F4A01235B4228003100E3
:101F9000A04703000C001900220090235B057A245F
:101FA000C918624108001100374C384A0023A04785
:101FB00003000C003B617C617B6898787B68D97872
:101FC000012301930023009300230122304CA047FA
:101FD0007B6898787B68D9787B689B7B1A002D4B4F
:101FE00098472D4A7B685B7B103320339B0042214E
:101FF0009950294ABC234121D150284B274AD26904
:1020000020210A43DA617B685B7B1800244B9847E8
:102010000300FB60FB681B6801221A43FB681A601F
:10202000C046FB68DB69DB07DB0FDBB2002BF8D1B6
:10203000FB681C4A1A60FB68C02292025A603B6926
:102040007C699AB2FB689A81C046FB68DB69DB0752
:10205000DB0FDBB2002BF8D1FB68DB699B07DB0FE2
:10206000DBB2002BF1D1FB681B6802221A43FB682C
:102070001A607B6801221A70C046BD4607B0F0BDE9
:10208000054000000000FFFFC53F000000127A007D
:10209000D501000045040000001C0040000800407D
:1020A000650D00000400314090B587B002AF786044
:1020B0007B685A7B7B681B6919001000184B984796
:1020C0007B6818797B685979012301930023009379
:1020D00000230022134CA0477B6818797B6859794C
:1020E0007B689B7B1A00104B98477B685B7B1800D2
:1020F0000E4B98470300FB60FB685B6880229202EE
:102100001A43FB685A60FB689B7DDBB204221343D1
:10211000DAB2FB689A75C046BD4605B090BDC046B0
:102120009D0B0000D501000045040000650D000076
:1021300080B584B000AF78600A00FB1C1A707B6821
:102140005B7B1800114B98470300FB60C046FB689F
:102150001B7EDBB2002B01D1012300E00023002B0A
:10216000F5D1FB1C1B789AB2FB681A85C046FB6848
:102170001B7EDBB2002B01D1012300E00023002BEA
:10218000F5D1C046BD4604B080BDC046650D000017
:1021900090B585B000AF78600F23FB1800221A704D
:1021A0007B68BB600DE0BA68204B0A21100098479D
:1021B0000300BB600F23FB181A780F23FB180132B2
:1021C0001A70BB68002BEED17B68002B03D10F2364
:1021D000FB1801221A700F23FB181B78144A0021E8
:1021E000D1540F23FB180F22BA181278013A1A7033
:1021F0000F23FB181C787A680E4B0A2110009847B1
:102200000B00DBB23033DAB2094B1A557A68074B50
:102210000A211000984703007B607B68002BE0D107
:10222000034B1800BD4605B090BDC046313E0000CE
:102230008C0700203D3F000080B586B000AF78607D
:102240001723FB1800221A707B683B6109E03B6989
:102250001B093B611723FB181A781723FB1801325F
:102260001A703B69002BF2D17B68002B03D1172336
:10227000FB1801221A701E4B30221A701C4B782258
:102280005A701723FB181B780233194A0021D154C6
:102290007B68DBB20F221340DAB20F23FB18303217
:1022A0001A700F23FB181B78392B06D90F23FB1844
:1022B0000F22BA18127807321A701723FB18172248
:1022C000BA181278013A1A701723FB181B780233D8
:1022D000074A0F2179180978D1547B681B097B6064
:1022E0007B68002BD4D1024B1800BD4606B080BDE0
:1022F0008C07002080B582B000AF084B1B68002B14
:1023000004D0064B1B687B607B689847044B012216
:102310009A71C046BD4602B080BDC04698070020F5
:102320000020004080B582B000AF164B7B60164B9A
:102330003B607A683B689A420CD007E03B681A1D04
:102340003A607A68111D796012681A603A680F4B1A
:102350009A42F3D30E4B3B6004E03B681A1D3A608F
:1023600000221A603A680B4B9A42F6D30A4B7B6004
:102370000A4B7A68FF218A439A60094B9847094BB8
:102380009847FEE7D461000000000020A00600206E
:10239000A0060020F00800200000000000ED00E092
:1023A000F55C0000F13D000080B500AFFEE70000E5
:1023B00080B500AF024B034A1A60C046BD4680BDDF
:1023C0004800002040420F0090B585B002AF786011
:1023D000274B1800274B9847274B7A681A60264BE3
:1023E0001B681800254B9847002301930023009396
:1023F0000123012204210020214CA0470023019346
:1024000000230093012301221E2101201C4CA04720
:1024100000230193002300930023012202210220C4
:10242000174CA047174B45225A70164B05229A703D
:10243000144B0A22DA70134B0B221A71114B1F2214
:102440005A71104B20229A710E4B2622DA710D4BD5
:1024500007221A720B4B22225A720A4B00229A72DE
:10246000094B9847094B9847C046BD4603B090BDFD
:10247000F05E0000090500009C070020751A0000AE
:10248000D5010000A4070020E525000091240000EC
:1024900080B500AF2E4B98472E4B18002E4B984717
:1024A0002E4B5B781A002E4B110018002D4B9847CD
:1024B0002A4B9B781A002C4B11001800294B984787
:1024C000264BDB781A00294B11001800254B984742
:1024D000224B1B791A00264B11001800214B9847FC
:1024E0001E4B5B791A00234B110018001D4B9847B7
:1024F0001A4B9B791A00204B11001800194B984772
:10250000164BDB791A001D4B11001800154B98472C
:10251000124B1B7A1A001A4B11001800114B9847E6
:102520000E4B5B7A1A00174B110018000D4B9847A1
:102530000A4B9B7A1A00144B11001800094B98475C
:10254000124B1800044B9847C046BD4680BDC0469C
:10255000912500000C5F000009050000A407002081
:10256000205F00004D0500002C5F0000385F000078
:10257000445F0000505F00005C5F0000645F00008B
:102580006C5F00007C5F0000885F0000985F0000C7
:1025900090B583B000AF104B3B60FB1D00221A705A
:1025A0000FE0FB1D1B783A68D418FB1D1B78180040
:1025B0000A4B984703002370FB1D1A78FB1D01325C
:1025C0001A70FB1D1B78092BEBD9054B01221A70E1
:1025D000C046BD4603B090BDA507002039260000C7
:1025E000A407002080B582B000AF104B3B60FB1DFC
:1025F00000221A700FE0FB1D1B783A68D3181A7876
:10260000FB1D1B7811001800094B9847FB1D1A7819
:10261000FB1D01321A70FB1D1B78092BEBD9054BF2
:1026200001221A70C046BD4602B080BDA507002039
:10263000BD260000A407002080B582B000AF0200D4
:10264000FB1D1A70FB1DFA1D12783F210A401A70FB
:10265000144B1868FB1D1B7801221900124B984778
:10266000104B1B680022002118000F4B98470F4B9E
:1026700001221A7000200E4B98470A4B1B68180065
:102680000C4B984701E00C4B9847084B1B78002BEC
:10269000F9D1044B1A680A23FF33D35C1800BD46F6
:1026A00002B080BD9C070020C51A0000A0070020D2
:1026B0004D270000211B00007527000080B582B067
:1026C00000AF0200FB1D1A70BB1D0A1C1A70FB1D17
:1026D000FA1D12783F210A401A70FB1DFA1D12786C
:1026E00040210A431A70134B1868FB1D1B78012206
:1026F0001900114B98470F4B1868BB1D1B7800221F
:1027000019000D4B98470D4B01221A7000200C4BFD
:102710009847084B1B6818000A4B984701E00A4B82
:102720009847064B1B78002BF9D1C046BD4602B036
:1027300080BDC0469C070020C51A0000A0070020ED
:102740004D270000211B00007527000080B582B0D6
:1027500000AF0200FB1D1A70FB1D1B781A0004213C
:102760000020034B9847C046BD4602B080BDC0461E
:10277000A103000080B500AF144B1B68144A9B5A9C
:10278000002B1FD0114B1A6881239B00D25A0F4B8C
:102790001B680F495B5A9A4214D30C4B1B680D4AB5
:1027A0009A5A0A4B1B680A495B5A9A420AD301207B
:1027B000094B9847054B1B68054A00219952074B66
:1027C00000221A70C046BD4680BDC0469C0700204E
:1027D00002020000060200004D270000A0070020B2
:1027E00090B583B002AF0E4B1A78002301930023FB
:1027F000009313000122022100200A4CA0470A4B3B
:1028000018000A4B9847084B1800094B98470020BE
:10281000084B9847084B9847C046BD4601B090BD4D
:10282000B0070020D50100004C00002089320000D4
:10283000C92300003D2A000065330000B0B584B014
:1028400000AF0200FB1D1A70FB1D1B78032B04D088
:10285000654B1800654B9847C3E0654B9847654B3F
:102860001B78002B05D10120634B9847634B984799
:10287000B7E0634B9847634A002300241360546019
:10288000604A002300249360D4600F23FB180022C9
:102890001A701AE00F23FB181B785B4ADB00D31871
:1028A0005C681B68574A10685168584D1A0023002D
:1028B000A84703000C00534A136054600F23FB1811
:1028C0001A780F23FB1801321A700F23FB181B789C
:1028D000042BDFD90E23FB1800221A701BE00E23F5
:1028E000FB181B78484A0533DB00D3185C681B686B
:1028F000444A9068D168454D1A002300A847030058
:102900000C00404A9360D4600E23FB181A780E2303
:10291000FB1801321A700E23FB181B78042BDED92A
:10292000384B186859683A4C00223A4BA0470300CC
:102930000C00344A13605460324B9868D968344CA8
:102940000022344BA04703000C002E4A9360D46051
:102950002C4B186859682B4BDC689B682E4D1A006D
:102960002300A84703000C002C4A136054602C4B32
:102970001B785A1CD1B22A4A1170042B0FD8274B4E
:1029800018685968274B5C681B68204D1A002300A3
:10299000A84703000C00234A136054601BE0214B3E
:1029A000186859681A4C00221A4BA04703000C0003
:1029B0001C4A136054601B4B5C681B681A4A180061
:1029C00021001A4B9847164B00221A70154A002313
:1029D000002413605460164B164800226421164CE4
:1029E000A047BD4604B0B0BDA05F000009050000CF
:1029F000712A0000B00700203D2A00006533000066
:102A00005930000070080020200800201542000006
:102A100035480000000014409D550000800800204B
:102A20009008002088080020B45F0000B505000071
:102A300065320000940800207917000080B582B04C
:102A400000AF0200FB1D1A70FB1D1B781A0002214B
:102A50000020054B9847054BFA1D12781A70C046A6
:102A6000BD4602B080BDC046A1030000B0070020F3
:102A7000B0B582B000AFFE4B984703007B60FD4BC2
:102A80001B781A0034235A43FB4BD3183B607B68F6
:102A90001A78597809020A43997809040A43DB78BD
:102AA0001B0613431A003B68FF2111400C001978E4
:102AB00000200140081C211C01431970110AFF204D
:102AC00001400C00597800200140081C211C0143E2
:102AD0005970110CFF2001400C0099780020014032
:102AE000081C211C01439970100EDA7800210A405D
:102AF000111C021C0A43DA707B681A7959790902A1
:102B00000A43997909040A43DB791B0613431A0027
:102B10003B68FF2111400C00197900200140081C7E
:102B2000211C01431971110AFF2001400C00597941
:102B300000200140081C211C01435971110CFF2089
:102B400001400C00997900200140081C211C014320
:102B50009971100EDA7900210A40111C021C0A43F7
:102B6000DA717B681A7A597A09020A43997A090458
:102B70000A43DB7A1B0613431A003B68FF2111400E
:102B80000C00197A00200140081C211C0143197215
:102B9000110AFF2001400C00597A00200140081C56
:102BA000211C01435972110CFF2001400C00997A3D
:102BB00000200140081C211C01439972100EDA7A92
:102BC00000210A40111C021C0A43DA727B681A7B3E
:102BD000597B09020A43997B09040A43DB7B1B06E4
:102BE00013431A003B68FF2111400C00197B0020A1
:102BF0000140081C211C01431973110AFF200140E8
:102C00000C00597B00200140081C211C0143597312
:102C1000110CFF2001400C00997B00200140081C92
:102C2000211C01439973100EDA7B00210A40111C0C
:102C3000021C0A43DA737B681A7C597C09020A4336
:102C4000997C09040A43DB7C1B0613431A003B688A
:102C5000FF2111400C00197C00200140081C211CA0
:102C600001431974110AFF2001400C00597C002017
:102C70000140081C211C01435974110CFF20014024
:102C80000C00997C00200140081C211C0143997410
:102C9000100EDA7C00210A40111C021C0A43DA746F
:102CA0007B681A7D597D09020A43997D09040A430C
:102CB000DB7D1B0613431A003B68FF2111400C000B
:102CC000197D00200140081C211C01431975110ABF
:102CD000FF2001400C00597D00200140081C211CF0
:102CE00001435975110CFF2001400C00997D002013
:102CF0000140081C211C01439975100EDA7D00214A
:102D00000A40111C021C0A43DA757B681A7E597E40
:102D100009020A43997E09040A43DB7E1B0613431A
:102D20001A003B68FF2111400C00197E0020014071
:102D3000081C211C01431976110AFF2001400C00D8
:102D4000597E00200140081C211C01435976110CBA
:102D5000FF2001400C00997E00200140081C211C2E
:102D600001439976100EDA7E00210A40111C021CE4
:102D70000A43DA767B681A7F597F09020A43997FF2
:102D800009040A43DB7F1B0613431A003B68FF213B
:102D900011400C00197F00200140081C211C014338
:102DA0001977110AFF2001400C00597F00200140D3
:102DB000081C211C01435977110CFF2001400C0015
:102DC000997F00200140081C211C01439977100EB7
:102DD000DA7F00210A40111C021C0A43DA777B6863
:102DE00020229A5C2121595C09020A432221595C64
:102DF00009040A4323215B5C1B0613431A003B684A
:102E0000FF2111400D002021585C00242040041CAB
:102E1000281C20435854110AFF2001400D00212195
:102E2000585C00242040041C281C20435854110CDA
:102E3000FF2001400D002221585C00242040041C8A
:102E4000281C20435854140E2322995C0020014072
:102E5000081C211C014399547B6824229A5C25217B
:102E6000595C09020A432621595C09040A4305E01A
:102E70008D330000B0070020B407002027215B5CE1
:102E80001B0613431A003B68FF2111400D0024214B
:102E9000585C00242040041C281C20435854110A6C
:102EA000FF2001400D002521585C00242040041C17
:102EB000281C20435854110CFF2001400D002621EE
:102EC000585C00242040041C281C20435854140E35
:102ED0002722995C00200140081C211C01439954C1
:102EE0007B6828229A5C2921595C09020A432A211D
:102EF000595C09040A432B215B5C1B0613431A002F
:102F00003B68FF2111400D002821585C002420401F
:102F1000041C281C20435854110AFF2001400D00B6
:102F20002921585C00242040041C281C20435854AC
:102F3000110CFF2001400D002A21585C0024204084
:102F4000041C281C20435854140E2B22995C00208A
:102F50000140081C211C014399547B682C229A5C77
:102F60002D21595C09020A432E21595C09040A43A8
:102F70002F215B5C1B0613431A003B68FF211140A5
:102F80000D002C21585C00242040041C281C2043E8
:102F90005854110AFF2001400D002D21585C0024D7
:102FA0002040041C281C20435854110CFF200140D1
:102FB0000D002E21585C00242040041C281C2043B6
:102FC0005854140E2F22995C00200140081C211C2B
:102FD000014399547B6830229A5C3121595C090283
:102FE0000A433221595C09040A4333215B5C1B0606
:102FF00013431A003B68FF2111400D003021585C3B
:1030000000242040041C281C20435854110AFF208F
:1030100001400D003121585C00242040041C281C74
:1030200020435854110CFF2001400D003221585C00
:1030300000242040041C281C20435854140E332222
:10304000995C00200140081C211C01439954C04692
:10305000BD4602B0B0BDC046F0B58DB004AF0F2381
:1030600010229446BC44634400221A70A5E00F234A
:1030700010229446BC4463441B78564A34214B4387
:10308000D31830331A68544B1000984705000E00CF
:103090000F2310229446BC4463441B784D4A3421CC
:1030A0004B43D3182C331A684B4B1000984702003F
:1030B0000B004A4C28003100A04703000C001A0006
:1030C0002300474C00204749A04703000C003B6108
:1030D0007C610F2310229446BC4463441B78342245
:1030E0005A433C4BD318BB610E2310229446BC4478
:1030F000634400221A704BE00F2310229446BC4414
:1031000063441D780E2310229446BC4463441E7809
:10311000BB691A68304B10009847B860F960BB690A
:1031200008331A682C4B1000984738607960BB69E7
:1031300004331A68284B100098470A0001003B69C5
:103140007C6902930394009101923A687B68B868A5
:10315000F968254CA0470A00010024482B009B0079
:103160005B199B19DB00C31819605A60BB691B68A7
:103170009A1CBB691A600E2310229446BC44634417
:103180001A780E2310218C46BC44634401321A7015
:103190000E2310229446BC4463441B78042BABD905
:1031A0000F2310229446BC4463441A780F23102145
:1031B0008C46BC44634401321A700F23102294469B
:1031C000BC4463441B78012B00D850E7C046BD4681
:1031D00009B0F0BDB4070020315C00009D5500002F
:1031E000354800000000F23FF131000020080020C7
:1031F000F0B587B000AFB860F9603A607B60164CFC
:103200003A687B68B868F968A04703000C001800AA
:103210002100124CBA6BFB6BA04703000C001D0091
:1032200026000E4C0022FF239B05386B796BA047CC
:1032300003000C001A002300094C28003100A047AD
:1032400003000C003B617C613B697C691800210034
:10325000BD4607B0F0BDC0469D5500009D50000022
:103260001542000080B582B000AF78600020044BAA
:103270009847044B9847C046BD4602B080BDC04643
:103280003D2A00006533000090B585B002AF78603C
:10329000284B1800284B9847284B7A681A60274B10
:1032A0001B681800264B98470023019300230093C6
:1032B0000123012204210120224CA0470023019375
:1032C0000023009301230122082101201D4CA04767
:1032D0001D4B1E4A5A601C4B18001D4B98471D4B36
:1032E00002225A701B4B44229A701A4B1F22DA702A
:1032F000184B07221A71174BFF225A71154BFF22E8
:103300009A71144BFF22DA71124BFF221A72114B81
:1033100000225A720F4B00229A720E4B01221A7031
:103320000D4B98470D4B98470D4B9847C046BD46EF
:1033300003B090BDB85F000009050000A808002098
:10334000751A0000D501000054020020353D000030
:10335000D1080000B0080020393B0000A10A00009D
:103360009D33000080B500AF054B9847054B012207
:103370001A7003210020044B9847C046BD4680BD0B
:10338000ED3C0000B00800205D3C000080B500AFBF
:10339000014B1800BD4680BDBB08002080B500AFC2
:1033A000864B9847864B1800864B9847864B5B7830
:1033B0001A00864B11001800854B9847824B9B786A
:1033C0001A00844B11001800814B98477E4BDB7824
:1033D0001A00814B110018007D4B98477A4B1B79DE
:1033E0001A007E4B11001800794B9847764B5B7999
:1033F0001A007B4B11001800754B9847724B9B7954
:103400001A00784B11001800714B98476E4BDB790E
:103410001A00754B110018006D4B98476A4B1B7AC8
:103420001A00724B11001800694B9847664B5B7A83
:103430001A006F4B11001800654B9847624B9B7A3E
:103440001A006C4B11001800614B98475E4BDA7AFA
:10345000DB681B021B0A1B0213431A00664B110098
:1034600018005B4B9847584BDA7B1B691B021B0A01
:103470001B0213431A00614B11001800544B98476C
:10348000514BDA7C5B691B021B0A1B0213431A00B7
:103490005B4B110018004E4B98474B4BDA7D9B69F4
:1034A0001B021B0A1B0213431A00564B1100180083
:1034B000474B9847444BDA7EDB691B021B0A1B0211
:1034C00013431A00504B11001800414B98473E4BD4
:1034D000DA7F1B6A1B021B0A1B0213431A004B4BA9
:1034E000110018003A4B9847374B23229A5C5B6ACD
:1034F0001B021B0A1B0213431A00454B1100180044
:10350000334B9847304B27229A5C9B6A1B021B0A5D
:103510001B0213431A003F4B110018002C4B984715
:10352000294B2B229A5CDB6A1B021B0A1B021343EA
:103530001A00394B11001800254B9847224B2F22B7
:103540009A5C1B6B1B021B0A1B0213431A00334BB2
:10355000110018001E4B98471B4B33229A5C5B6B83
:103560001B021B0A1B0213431A002D4B11001800EB
:10357000174B9847144B37229A5C9B6B1B021B0A14
:103580001B0213431A00274B11001800104B9847D9
:103590000D4B3B229A5CDB6B1B021B0A1B02134385
:1035A0001A00214B11001800094B98471F4B1800B7
:1035B000044B9847C046BD4680BDC046313600002A
:1035C000D45F000009050000B0080020E85F00009B
:1035D0004D050000F45F0000006000000C6000007A
:1035E000186000002C600000406000005060000087
:1035F000606000007460000088600000946000005B
:10360000A0600000AC600000B8600000C460000072
:10361000D0600000DC600000E8600000F4600000A2
:10362000006100000C610000146100001C610000DA
:1036300090B583B000AF034B3B60FB1D00221A70B6
:1036400013E0C046B1080020FB1D1B783A68D4186F
:10365000FB1D1B781800FD4B98470300DBB223705D
:10366000FB1D1A78FB1D01321A70FB1D1B78092BFC
:10367000EAD91020F54B98470200F54B0B33FF2198
:1036800011400C00197800200140081C211C014346
:103690001970110AFF2001400C00597800200140E8
:1036A000081C211C01435970110CFF2001400C0023
:1036B000997800200140081C211C01439970100ECC
:1036C000DA7800210A40111C021C0A43DA7011202A
:1036D000DE4B98470200DE4B0F33FF2111400C00F8
:1036E000197800200140081C211C01431970110A9F
:1036F000FF2001400C00597800200140081C211CCB
:1037000001435970110CFF2001400C0099780020F2
:103710000140081C211C01439970100EDA78002129
:103720000A40111C021C0A43DA701220C74B98474A
:103730000200C74B1333FF2111400C001978002001
:103740000140081C211C01431970110AFF2001408F
:103750000C00597800200140081C211C01435970BD
:10376000110CFF2001400C00997800200140081C3A
:10377000211C01439970100EDA7800210A40111CB7
:10378000021C0A43DA701320B04B98470200B04B7A
:103790001733FF2111400C00197800200140081C4C
:1037A000211C01431970110AFF2001400C005978B7
:1037B00000200140081C211C01435970110CFF20FE
:1037C00001400C00997800200140081C211C014395
:1037D0009970100EDA7800210A40111C021C0A436D
:1037E000DA701420994B98470200994B1B33FF2144
:1037F00011400C00197800200140081C211C0143D5
:103800001970110AFF2001400C0059780020014076
:10381000081C211C01435970110CFF2001400C00B1
:10382000997800200140081C211C01439970100E5A
:10383000DA7800210A40111C021C0A43DA701520B4
:10384000824B98470200824B1F33FF2111400C002E
:10385000197800200140081C211C01431970110A2D
:10386000FF2001400C00597800200140081C211C59
:1038700001435970110CFF2001400C009978002081
:103880000140081C211C01439970100EDA780021B8
:103890000A40111C021C0A43DA7016206B4B984731
:1038A00002006B4B2333FF2111400C0019780020DC
:1038B0000140081C211C01431970110AFF2001401E
:1038C0000C00597800200140081C211C014359704C
:1038D000110CFF2001400C00997800200140081CC9
:1038E000211C01439970100EDA7800210A40111C46
:1038F000021C0A43DA701720544B98470200544BBD
:103900002733FF2111400C00197800200140081CCA
:10391000211C01431970110AFF2001400C00597845
:1039200000200140081C211C01435970110CFF208C
:1039300001400C00997800200140081C211C014323
:103940009970100EDA7800210A40111C021C0A43FB
:10395000DA7018203D4B984702003D4B2B33FF2176
:1039600011400C00197800200140081C211C014363
:103970001970110AFF2001400C0059780020014005
:10398000081C211C01435970110CFF2001400C0040
:10399000997800200140081C211C01439970100EE9
:1039A000DA7800210A40111C021C0A43DA7019203F
:1039B000264B98470200264B2F33FF2111400C0065
:1039C000197800200140081C211C01431970110ABC
:1039D000FF2001400C00597800200140081C211CE8
:1039E00001435970110CFF2001400C009978002010
:1039F0000140081C211C01439970100EDA78002147
:103A00000A40111C021C0A43DA701A200F4B984717
:103A100002000F4B3333FF2111400C0019780020B6
:103A20000140081C211C01431970110AFF200140AC
:103A30000C00597800200140081C211C01435970DA
:103A4000110CFF2001400C00997803E0853B000039
:103A5000B008002000200140081C211C014399707F
:103A6000100EDA7800210A40111C021C0A43DA7099
:103A70001B202F4B984702002E4B3733FF2111405C
:103A80000C00197800200140081C211C014319700A
:103A9000110AFF2001400C00597800200140081C49
:103AA000211C01435970110CFF2001400C00997832
:103AB00000200140081C211C01439970100EDA7887
:103AC00000210A40111C021C0A43DA701C20184B0A
:103AD00098470200174B3B33FF2111400C00197827
:103AE00000200140081C211C01431970110AFF200D
:103AF00001400C00597800200140081C211C0143A2
:103B00005970110CFF2001400C00997800200140F1
:103B1000081C211C01439970100EDA7800210A401C
:103B2000111C021C0A43DA70C046BD4603B090BDAA
:103B3000853B0000B008002080B582B000AF0F4B7D
:103B40003B60FB1D00221A700FE0FB1D1B783A68DA
:103B5000D3181A78FB1D1B7811001800084B9847E2
:103B6000FB1D1A78FB1D01321A70FB1D1B78092BF7
:103B7000EBD9C046BD4602B080BDC046B1080020AA
:103B80005D3C000080B582B000AF0200FB1D1A70E2
:103B9000FB1DFA1D12783F210A401A70294B186844
:103BA000FB1D1B7801221900274B9847254B1B68EA
:103BB000002200211800244B9847FB1D1B780F2B77
:103BC0000DD9204B1B680022002118001E4B98477E
:103BD0001C4B1B680022002118001B4B98471B4BF5
:103BE00001221A7000201A4B9847164B1B681800C8
:103BF000184B984701E0184B9847144B1B78002B43
:103C0000F9D1FB1D1B780F2B13D90E4B1A680A2311
:103C1000FF33D35C1A040B4B196885235B00CB5C24
:103C20001B021A43074B19680C23FF33CB5C134369
:103C300004E0044B1A680A23FF33D35C1800BD4626
:103C400002B080BDA8080020C51A0000AC08002002
:103C50000D3D0000211B0000853D000080B582B0B5
:103C600000AF0200FB1D1A70BB1D0A1C1A70FB1D61
:103C7000FA1D12783F210A401A70FB1DFA1D1278B6
:103C800040210A431A70134B1868FB1D1B78012250
:103C90001900114B98470F4B1868BB1D1B78002269
:103CA00019000D4B98470D4B01221A7000200C4B48
:103CB0009847084B1B6818000A4B984701E00A4BCD
:103CC0009847064B1B78002BF9D1C046BD4602B081
:103CD00080BDC046A8080020C51A0000AC0800201E
:103CE0000D3D0000211B0000853D000080B500AFA8
:103CF0001F210220034B9847034B9847C046BD46FF
:103D000080BDC0465D3C0000A10A000080B582B0C5
:103D100000AF0200FB1D1A70FB1D1B781A00042166
:103D20000120034B9847C046BD4602B080BDC04647
:103D3000A103000080B582B000AF78607B685B783B
:103D4000002B13D10B4B98470B4B98470B4BDB7851
:103D5000192B03D0094B02221A7002E0074B0322F1
:103D60001A70064B1B781800054B9847C046BD4695
:103D700002B080BD31360000ED3C0000B0080020EC
:103D80003D28000080B500AF144B1B68144A9B5AB5
:103D9000002B1FD0114B1A6881239B00D25A0F4B66
:103DA0001B680F495B5A9A4214D30C4B1B680D4A8F
:103DB0009A5A0A4B1B680A495B5A9A420AD3012055
:103DC000094B9847054B1B68054A00219952074B40
:103DD00000221A70C046BD4680BDC046A80800201B
:103DE00002020000060200000D3D0000AC080020A9
:103DF00080B500AF074B9847074B9847074B180013
:103E0000074B9847074B9847074B9847074B9847EE
:103E1000FAE7C046090100006501000060020020C9
:103E2000E5040000E1270000A10A00005D19000080
:103E3000002243088B4274D303098B425FD3030AE9
:103E40008B4244D3030B8B4228D3030C8B420DD3FC
:103E5000FF22090212BA030C8B4202D3121209028A
:103E600065D0030B8B4219D300E0090AC30B8B42C8
:103E700001D3CB03C01A5241830B8B4201D38B0376
:103E8000C01A5241430B8B4201D34B03C01A52411B
:103E9000030B8B4201D30B03C01A5241C30A8B425E
:103EA00001D3CB02C01A5241830A8B4201D38B0249
:103EB000C01A5241430A8B4201D34B02C01A5241ED
:103EC000030A8B4201D30B02C01A5241CDD2C3095F
:103ED0008B4201D3CB01C01A524183098B4201D3DB
:103EE0008B01C01A524143098B4201D34B01C01AC6
:103EF000524103098B4201D30B01C01A5241C3083E
:103F00008B4201D3CB00C01A524183088B4201D3AC
:103F10008B00C01A524143088B4201D34B00C01A98
:103F20005241411A00D20146524110467047FFE704
:103F300001B5002000F006F802BDC0460029F7D008
:103F400076E770477047C0468446101C62468C4630
:103F5000191C634600E0C0461FB501F03DF800287B
:103F600001D40021C8421FBD10B500F097FF4042A8
:103F7000013010BD10B501F02FF8002801DB002042
:103F800010BD012010BDC04610B501F025F8002875
:103F900001DD002010BD012010BDC04610B500F0AD
:103FA000B7FF002801DC002010BD012010BDC04675
:103FB00010B500F0ADFF002801DA002010BD01208F
:103FC00010BDC046002B11D1002A0FD1002900D10D
:103FD000002802D00021C943081C07B4024802A1EE
:103FE0004018029003BDC0465DFFFFFF03B4684662
:103FF00001B5029800F04EF8019B9E4602B00CBC41
:104000007047C046F0B5CE46474615042D0C2E002D
:1040100080B50704140C3F0C9946030C7E435D43A6
:10402000674363437F19340CE4199C46A54203D9C6
:1040300080235B029846C4444B46514343433604B5
:10404000360C250C24046544A4195918491920007C
:104050000CBC90469946F0BD70B500220C4B040094
:104060000D00FFF7A5FF002804D12000290001F072
:10407000ABFD70BD064B00222000290001F08EFA36
:1040800001F0A2FD80231B069C466044F1E7C04678
:104090000000E041F0B557464E464546DE46E0B5E5
:1040A000040083B00D00924699468B422FD82CD045
:1040B0004946504601F012FE29000600200001F09A
:1040C0000DFE331A9846203B9B4600D574E05346BC
:1040D0005A4693401F005346424693401E00AF424B
:1040E00029D826D05B46A41BBD41002B00DA79E01D
:1040F000002200230092019301235A46934001932A
:10410000012342469340009319E08242D0D9002215
:104110000023009201930C9B002B01D01C605D607A
:104120000098019903B03CBC90469946A246AB4624
:10413000F0BDA342D6D9002200230092019343464A
:10414000002BE8D0FB0772081A4346467B080EE0B6
:10415000AB4201D1A2420CD8A41A9D4101202419DE
:104160006D410021013E24184D41002E06D0AB4286
:10417000EED9013E24196D41002EF8D15B4600981E
:10418000019900196941002B22DB2B005A46D340CC
:104190002A004446E2401C005B461500002B2CDB45
:1041A00026009E40330026004746BE403200801A5B
:1041B000994100900191AEE7424620239B1A524656
:1041C000DA40414613004A468A4017001F4382E7FF
:1041D000424620239B1A2A0046469A402300F34079
:1041E0001343D5E74246202300219B1A0022009169
:1041F00001920122DA40019282E742462023260002
:104200009B1ADE402F00B446974066463B0033437E
:10421000C9E7C046F8B54546DE4657464E460C034C
:10422000E0B54E00C90F88460D00610A440F0C43EB
:10423000C70019035800DB0F9B464B0A510F0B4375
:10424000760D400D1900D200D84500D1AEE0351AE8
:10425000002D00DCF6E000280FD1134300D1DBE095
:104260006B1E002B00D037E1BA1A9742BF41641A87
:104270007F42E41B0126170024E0C64B9E424DD02E
:1042800080231B041943382D00DD07E11F2D00DDBD
:1042900038E12020431B9A460B0050468340994644
:1042A00013004846EB401843030050468240501E1E
:1042B0008241E9401A43BA1A611A9742A441170091
:1042C00064420C1B230262D56402650A002D00D1F2
:1042D000DFE0280001F0E4FC0300083B1F2B00DDB9
:1042E000D2E020223C00D21A9D40D4409F4025437A
:1042F0009E4200DDC4E09E1B731C1F2B00DDF1E01D
:10430000202238002900D21AD840914097402C0032
:104310000143781E8741DC4000260F437B0709D00C
:104320000F233B40042B05D03B1DBB42BF417F42C6
:10433000E4191F0023022CD5964B01369E4200D172
:104340009AE04546944BFF081C40600776056402DE
:104350000743240B760D00212403230B0C0D8F4AF9
:1043600024051C431440330523435B00ED075B0821
:104370002B43380019003CBC90469946A246AB46F8
:10438000F8BD6446044300D111E2040067467B0790
:10439000C6D145466007FF080743E4087D4B9E42AF
:1043A00030D024037605240B760DD4E7331A9A46D1
:1043B000002B78DD002831D076488642AED08020B0
:1043C000000401435346382B00DCE9E00A43511E48
:1043D0008A410021D219BA42BF4109197C42170013
:1043E0000C192302D3D56B4B01369E4200D13AE122
:1043F0000120694B1C407B0807401F43E00707432F
:1044000064088BE723003B4300D1CBE180221203F9
:1044100014432403240B9EE72E007FE7080010437B
:1044200000D1B4E0581E002800D0DEE0BA18BA422D
:104430009B4164185B42E418170001262302A6D5AD
:104440000226D5E7002D6ED1701C4005400D0128D5
:1044500000DCF9E0B81A844687428041E51A404200
:104460002D1A280200D489E0D71BBA4292411C1BA6
:104470005242A51AD84629E74546002400276AE794
:10448000454CF61A2C4049E73D0028388540002766
:104490002EE7380001F004FC20301DE70A43511ECE
:1044A0008A41002107E7002B00D0F3E0701C430590
:1044B0005B0D012B00DCADE0364B984200D1D1E022
:1044C000BA18BA42BF4164187F42E419E70752089C
:1044D00017436408060021E72E48854200D193E087
:1044E0001D00D0E629001F3EF140202B00D18DE0B9
:1044F0004022D31A9D402F437D1EAF4100240F431D
:10450000002644E72B000800203BD8400300202D64
:1045100000D17DE04020451BA9400A43511E8A413D
:1045200000211A43C7E6002E50D01A4EB04257D091
:1045300080266B429946360434434B46382B00DDC7
:10454000D6E01F2B00DD35E12026F51A2600AE400F
:10455000B2463E00DE40AC46350056462E43654628
:10456000AF407D1EAF41DC403743D71BBA4292417A
:104570000C1B5242A41A0600D846A3E664466746BE
:104580002C4300D0A2E600250026002706E71E00E7
:10459000C4E6C046FF070000FFFF7FFFFFFF0F805C
:1045A0001F2B63DC2020C31A080098409C468346DA
:1045B00053461000D84003005846184363469A40BB
:1045C000531E9A4153460243D94003E726003E4317
:1045D00006D0EB439946002BC7D0944EB042ACD1E5
:1045E0000C0017000600D84698E6904B9A450BD071
:1045F0008246E7E6002800D09EE01800104300D174
:10460000E9E01C001700D846884E87E6002572E7CF
:10461000002182E723003B43002E00D0ABE0002BBB
:1046200000D1E7E00B00134300D177E6BA18BA4295
:10463000BF4164187F42E419230200D4F2E07C4BAE
:1046400017001C40060069E620003843002ED1D137
:1046500000285BD11C00144300D1A8E01C00170007
:10466000D8465BE606000024002797E650460B007C
:104670002038C34099465346202B00D195E0402373
:1046800050461B1A99400A43511E8A414B4600214D
:104690001A439FE6002E30D126003E4367D0DB430D
:1046A0009A46002B1CD0614EB04260D05346382B46
:1046B00000DD96E01F2B00DD9FE02026F31A260088
:1046C0009E409C46B34653463E00DE4033005E4665
:1046D0001E4363469F407B1E9F415346DC40374349
:1046E000BF189742924164185242A418060078E617
:1046F00027437C1EA741002437E74C4EB04236D0FA
:1047000080265B4236049A463443CFE718001043B4
:1047100000D103E6B81A84466745AD41E01A6D4200
:10472000401B050200D42CE6D71BBA4292411C1B49
:104730005242A41AD846F1E51800104300D163E7AD
:10474000F808670707438020E4080003044208D004
:10475000DD08054205D1D208590711430F002C008E
:10476000D8467B0FE4001C43FF00304ED6E50C001A
:1047700017000600D2E5002B38D00B00134300D100
:1047800042E7F808670707438020E4080003044273
:10479000E7D0CB080342E4D1D208490711430F0008
:1047A0001C00DEE700270024D5E500216BE700258B
:1047B0000027F3E54E462500203EF5404B462E00EF
:1047C000202B2DD04025ED1AAC4027437C1EA7415D
:1047D00000243743C9E6802400252403134E002714
:1047E000DCE527437C1EA741002479E70C00170075
:1047F0000E4E93E50C00170090E556462300203E30
:10480000F34099465346202B0ED0402356469B1B1F
:104810009C4027437C1EA7414B4600241F435FE773
:104820000024D2E71700B2E50024F2E7FF070000FA
:10483000FFFF7FFFF0B557464546DE464E46E0B5E2
:104840004C000E0387B0834692461D008046360B0F
:10485000640DCF0F002C4FD06F4B9C4235D080237E
:10486000420F1B04F600134333439946C300984696
:104870006A4B00269C460023644403932B031B0BC6
:104880009B466B00ED0F50465B0D01955ED0624A72
:10489000934253D05A46D1008022400F1204024363
:1048A0000A4393465246D1005C4A94460022634430
:1048B0003800684084460290E41A16430F2E00D94F
:1048C000B4E0574BB6009B599F46030033439946CB
:1048D0006CD100239846023308260393CEE7CB46DB
:1048E0004146039A0197022A65D1019B4A4C9C4696
:1048F0000023002298466BE00300334399464ED0D4
:10490000002E00D1BCE1300001F0CAF903000B3BDE
:104910001C2B00DDACE11D22D31A5A460100DA40FF
:1049200008398E401300334399465B468B409846C6
:1049300000233C4C0026241A03939FE751465A4615
:10494000114329D1002293460232B1E7594601436F
:104950001ED05B46002B00D19EE1584601F0A0F925
:1049600003000B3B1C2B00DD8FE102005946083A87
:1049700091408B461D21CB1A5146D9400B00594618
:104980000B4351469B469140264B00221B1A8FE752
:10499000002301229B468BE75146032288E7002330
:1049A0009846013304260024039367E70323B146A6
:1049B00003930C2662E7032A00D15CE2019B012AE3
:1049C00000D0E4E113409C460023002400229846D6
:1049D00000211203130B0A0D12051A432305124C72
:1049E00040462240134362465B00D2075B081343F4
:1049F000190007B03CBC90469946A246AB46F0BDB4
:104A0000002380229C4612039846034CE0E70023D3
:104A1000014C00229846DBE7FF07000001FCFFFF86
:104A2000246100000DFCFFFFFFFF0F80D94500D976
:104A300039E100D134E1002346464D469A46013C17
:104A40005B460A0E1B021A430B02170C0393130456
:104A50001B0C3900280090460193FFF7E9F902008A
:104A6000019B83465A43280039009146FFF766FAB6
:104A7000350C09040D43A9450DD95B464544013B5E
:104A8000A84500D93AE1A94500D837E102235B42A5
:104A90009C464544E3444B46EB1A39001800049306
:104AA000FFF7C6F9019B0500434339000498994676
:104AB000FFF744FA330409041B0C0B43994509D949
:104AC00043446A1E984500D91AE1994500D817E178
:104AD000023D43444A469B1A5A4612042A4303990C
:104AE0009346100C0A0C914609045A46090C4E468E
:104AF0000D001204120C454305915143724370435B
:104B000052190E0CB218954203D980256D02AC469D
:104B10006044150C09041204090C28185218834229
:104B200000D2CEE000D1C8E01D1A53469E1AB2450D
:104B300092415242AB1A9A46984500D117E139008A
:104B40001800FFF775F9019B0500434339005046F3
:104B50000493FFF7F3F904980B04310C19438842CE
:104B600009D941446B1E884500D907E1884200D825
:104B700004E1023D4144049BCB1A18003900049320
:104B8000FFF756F9019B824643433900049801938D
:104B9000FFF7D4F901980B043104090C194388423A
:104BA0000DD953464144013B884500D9E8E088428D
:104BB00000D8E5E002235B429C464144E244019B6D
:104BC0002D04CE1A51462943059D4F462A000B0459
:104BD000080C1B0C5A4345437B4378435B19170C65
:104BE000FB189D4203D980256D02AC4660441D0C24
:104BF00012041B04120C28189B18864200D293E062
:104C000000D18EE001231943A04BE318002B00DCF8
:104C100099E04A0700D09EE05A46D20106D55A468E
:104C20009B4B1A4080239346DB00E318994A93423A
:104C300068DD0123029A984C1A4000239446984656
:104C40000022C5E680224B46120313420AD05B467F
:104C5000134206D11A431203120BAC4688468E4CFF
:104C6000B6E64B461A431203120BBC468A4CAFE61B
:104C700003005A46283B9A4000239146984657E63F
:104C8000584601F00DF8203040E603005246283B1C
:104C90009A400021934677E601F002F820305FE663
:104CA000884500D2C7E64B46DE075D0843465B08F1
:104CB0001E434346DB079A46C2E60025924500D3D1
:104CC00033E7039E5946B446E244B245AD416D42D6
:104CD0004544EB180139984507D2984200D97FE046
:104CE00000D1BCE01D1A8B461FE79845FAD1039D01
:104CF0005545F2D943468B461D1A16E79B46CAE630
:104D00001500E7E65A46C90852070A435B05904674
:104D10005C0D5A460123029952021940120B8C462F
:104D200056E6002B00D16FE746444A1EB04529D90C
:104D30001100864200D065E7039A934200D061E7F4
:104D400062E7012149420120C21A382A21DD029B73
:104D500003409C4638E60F220A40042A00D15BE754
:104D60000A00111D914292415242934454E7474B2D
:104D7000E318002BE5DD01225242F2E71D00FAE6BE
:104D80009A461CE7B04239D86ED011003AE7029338
:104D90003AE71F2A3CDC20239B1A0C005846994016
:104DA00098404B1E99415B46D440D3402043084372
:104DB0001A00430709D00F230340042B05D001003C
:104DC000081D88429B415B42D21813023AD5012349
:104DD000029A01241A400023944698460022F7E5DF
:104DE000022149428C46039DE344AC46E244AA4575
:104DF000AD416D424544ED182D1A96E68A1E039981
:104E00004D008D42894149424144761803958FE710
:104E10001F204042C31A5846D8400300202A28D0F9
:104E200040205D46821A954029434A1E914119430C
:104E3000072300220B4009D00F2300220B4008005B
:104E4000042BBDD1010053075202120BC9081943AC
:104E5000012388460299002419408C46B8E5524542
:104E6000BED88B46002560E6039D9D42C6D3110047
:104E700062E70025D8E780225B4612031A43019BB4
:104E80001203120B9C468846034CA1E5FF03000069
:104E9000FFFFFFFEFE070000FF070000F0B54F46D2
:104EA0004646D6465C00C0B51F03DB0F9A46174B3B
:104EB0000E034D0084468046360B6D0DC90F91469A
:104EC0003F0B640D01209D4208D09C4201D0A542B9
:104ED0000BD01CBC90469946A246F0BD63463343B6
:104EE000F7D1AC42F5D13A43F3D10120BE42F0D123
:104EF000C845EED1514507D0002DEAD163461E4387
:104F00003000461EB041E4E70020E2E7FF07000062
:104F1000F0B54546DE4657464E46E0B51F033D0B0D
:104F20002C4F0E034C00AB465D008446360B640DDF
:104F3000C90F90466D0DDB0FBC422AD0254FBD42F4
:104F40002DD0002C0FD130430700814678427841A4
:104F5000C0B2002D17D15F463A4314D14B46002012
:104F6000002B0AD006E0002D02D15846024301D0A2
:104F7000994218D04842012108433CBC90469946CA
:104F8000A246AB46F0BD0028F2D00120013B1843F9
:104F9000F3E737000743D1D002204042EDE75F46F8
:104FA0001743CED0F8E7AC42E4DC03DA481E012117
:104FB0000843E2E75E45DDD806D000205E45DCD23E
:104FC0000123481E1843D8E7C445D3D80020C44560
:104FD000F6D3D2E7FF070000F0B54E464546DE4661
:104FE00057465C00E0B51F03DB0F99462A4B0E03C2
:104FF0004D00C90F8446360B6D0D8B4690463F0B16
:10500000640D9D4220D0244B9C4222D0002D12D111
:10501000304343424341DBB2002C1FD0002B0CD065
:105020004B460120013B034318003CBC9046994687
:10503000A246AB46F0BD002C16D0CB4517D05B4640
:10504000594201230B43EFE7310002230143EBD127
:10505000D9E7390002231143E6D1D7E73A43DDD13E
:1050600000230028E0D0EAE73A43E6D1E7E7A5428B
:10507000E5DC05DBBE42E2D807D00023BE42D3D236
:105080005946012301390B43CEE7C445D7D8002345
:10509000C445F5D3C8E7C046FF070000F0B5574642
:1050A0004546DE464E46E0B50C0398464E00230BBF
:1050B00087B0070092469B46760DCD0F002E6BD031
:1050C0006D4B9E4235D080245B46420F2404DB00AA
:1050D00014431C43C3009946684BA3469C460023D7
:1050E00000276644029343461C035A00DB0F5046D8
:1050F000240B520D984600D176E05F4B9A426DD05A
:105100008023410F1B040B435C49E4008C461C4385
:10511000C300002062444146B6186940721C0191E8
:10512000944607430F2F00D9B0E0554ABF00D2592B
:1051300097465B460343994600D087E000239B4691
:10514000023308270293CEE742460192022867D035
:10515000032800D10EE2012800D062E100230024E0
:105160000022994601990140CDB2002112030B0D96
:10517000120B1B051343434A240513401C436400D0
:10518000ED0764082C434846210007B03CBC90461C
:105190009946A246AB46F0BD034399464FD05B46C5
:1051A000002B00D189E1584600F07AFD03000B3B4B
:1051B0001C2B00DD7AE11D22D31A3A0001005C4667
:1051C000DA4008398C4013008F4023439B46B94690
:1051D00000232D4E0027361A029384E753462343BB
:1051E0002AD10024022096E75346234320D0002CE6
:1051F00000D157E1200000F053FD03000B3B1C2BB6
:1052000000DD49E11D21CB1A51460200D940534629
:10521000083A944093400C431B4A121A00207AE744
:105220000125019B144C1D400023002299469CE758
:105230000024002201206EE7534603206BE7002381
:105240009B4601330427002602934CE70323814643
:105250000C27029347E7802200230025120399467A
:10526000054C82E75C464B4602986FE75C464B462E
:10527000019502986AE7C046FF07000001FCFFFFA6
:1052800064610000FFFF0F800DFCFFFF4A464946A6
:10529000170C1A0C1B041B0C08041900000C4143CA
:1052A0001500884619007D437943039589462900F6
:1052B000150045434D44029545462D0CAA46029DD6
:1052C0005544A94506D98A46802149028946CA44DF
:1052D00051460391290C0491414609042D04090CFF
:1052E00088462900250C24044144240C0591210002
:1052F00041438846210079438A46684341465044E9
:105300008146080C48446F43824503D980214902F5
:1053100089464F44010C894639004944029141466F
:105320000F0404993F0C88460004C019804441468C
:10533000049159460F0C0904090C884659438A46C2
:1053400039005143894641464A435146090C8B4630
:105350007B43D2185A44934203D980235B029B4675
:10536000D94451460904090C8A46414661437C43AD
:10537000130C12044B445244A1468A463C00414659
:105380006C434D4351464D440F0C7D19A94503D93B
:105390008021490288464444049F0399B846414409
:1053A0008B468345804141428846514608042F047C
:1053B000000C3F18584602991018894690429241B5
:1053C0004F44BA46524299469346C244D144CB44D4
:1053D0008F42BF41C245894199459B4193459241C6
:1053E0007F4249422D0C52420F435B4213437F19C7
:1053F000FF185B463C19DB0D059A64021C4343020F
:1054000013435D1EAB415A46C00D03435202134382
:10541000E20156D501205A0803401343E207134323
:1054200064085A48604400284DDD5A0709D00F220D
:105430001A40042A05D01A1D9A429B415B42E41887
:105440001300E20104D58020514AC000144060449A
:10545000504A904200DDE3E60125DB0862071A436B
:105460006402019B9146220B4405640D1D407CE6BD
:10547000802259461203114208D0144206D1224319
:105480001203120B45469946434C6EE65B461A439F
:105490001203120B404C68E603005446283B9C4024
:1054A0000023B9E600F0FCFB2030A6E60300283B11
:1054B0009F400023BB4699468AE600F0F1FB20306E
:1054C00074E6B446ADE701252A1A382A06DD019BA9
:1054D00000241D4000230022994646E61F2A21DCB5
:1054E00020252000AD1A1E00AB40A840D6405D1E0E
:1054F000AB4130431843D440430709D00F23034046
:10550000042B05D00300181D98429B415B42E41810
:10551000230221D50125019B01241D4000230022E7
:10552000994622E61F2521006D42281AC140080035
:10553000202A1DD05F35AA1A944023435C1EA34144
:10554000072503431D400022002D09D00F2200240F
:105550001A401800042AD6D1030065076402220B02
:10556000DB082B4301259946019B00241D40FCE5E7
:105570000024E2E78022012512032243019912034D
:10558000120B0D409946044CEFE5C046FF030000A6
:10559000FFFFFFFEFE070000FF070000F0B54646D4
:1055A000D6464F460C03C0B5CD0F4E00610A440FDE
:1055B0000C43C1005800400D84468A460F00190371
:1055C000500F490A0143C648760DA846DB0FD200AA
:1055D000844500D1D8E001204340AB4200D1A6E091
:1055E0006046351A002D00DC05E1002810D10B00C3
:1055F000134300D1D7E06B1E002B00D04BE1534684
:105600009F1ABA458041641A4042241A01261EE0BE
:10561000B34B9E4248D080231B041943382D00DD34
:1056200019E11F2D00DD4CE120230F005B1B100052
:105630009A409F40E840531E9A41E9400743174370
:105640005346DF1B611ABA45A44164420C1B230276
:1056500000D4C5E06402650A002D00D1F6E0280000
:1056600000F01EFB0300083B1F2B00DDE9E02022B9
:105670003C00D21A9D40D4409F4025439E4200DD0D
:10568000DBE09E1B731C1F2B00DD0AE1202238008B
:10569000D21A290097402C009140D8407A1E974199
:1056A000DC40002601430F437B0709D00F233B401A
:1056B000042B05D03B1DBB42BF417F42E4191F00B4
:1056C000230225D5864B01369E4200D1AFE0854BA3
:1056D00001251C4043466207FF0864027605174314
:1056E000240B760D1D4000212403230B0C0D7E4A54
:1056F00024051C431440330523435B00ED075B087E
:105700002B43380019001CBC90469946A246F0BDB8
:10571000012543466207FF081743E4081D40704B0C
:105720009E4236D024037605240B760DDBE76346D4
:10573000F31A002B00DC94E06046002835D068485E
:105740008642B1D080273F043943382B00DCFDE08E
:105750000A43170000217A1E97415744574580415C
:10576000091944420C1923023AD55D4B01369E4279
:1057700000D14BE101225B4B1C407B0817401F43CB
:10578000E207174364088FE70800104300D024E7BE
:1057900021E723003B4300D1B9E1802212031443E7
:1057A0002403240B9FE72E007EE70800104300D15E
:1057B000CAE0581E8446002800D0E7E05244524513
:1057C000804164184042241817000126230207D59F
:1057D0000226CFE764462C4300D1B3E12C00674694
:1057E0007B0700D062E76307FF081F43012543469C
:1057F000E4081D4093E7002D78D1751C6D056D0DF3
:10580000012D00DCF2E05046801A8245BF41651A46
:105810007F42ED1B8446280200D48CE05046171AC4
:10582000BA4292410C1B5542651B984614E701256C
:10583000434600241D40002755E72A4CF61A2C4009
:1058400032E73D0028388540002717E7380000F090
:1058500027FA203006E70A43170000217A1E9741F5
:10586000EEE6002B00D0E5E0731C9C465B055B0D6B
:10587000012B00DC9FE01A4B9C4500D1C5E052444F
:1058800052458041641840422418E70752081743E4
:105890006408664608E71248854200D185E01D008D
:1058A000BCE629001F3EF140202B00D17FE04022C2
:1058B000D31A9D402F437D1EAF4100240F43002685
:1058C0008EE72B000F00203BDF40202D71D04023BE
:1058D0005D1BA9400A43511E8A4100211743AFE6D0
:1058E000FF070000FFFF7FFFFFFF0F80002E3ED06D
:1058F000B34EB44545D0802636046D423443382D2E
:1059000000DDA8E01F2D00DD1FE120262700504606
:10591000761BB740E84007435046B040461EB041B2
:10592000EC403843171ABA4292410C1B5242A41A57
:10593000664698468BE6644667462C4300D08BE665
:10594000002500260027EAE61E00ADE61F2B60DCDE
:105950002027F81A0F00844687401000D8400743DC
:1059600060468240501E8241D9401743F5E626002A
:105970005046064305D0ED43002DD3D0904EB4459C
:10598000BDD10C001700664698468DE68C488342D0
:105990000BD06346D9E6002D00D096E008001043F6
:1059A00000D1E2E00C0017009846854E7CE6002509
:1059B00080E700218EE7230050460343002E00D0ED
:1059C000A8E0002B00D1DEE00B00134300D16BE612
:1059D0005244524580416418404224181700230263
:1059E00000D4FDE6774B66461C405DE62500504638
:1059F0000543002ECFD1002D4FD10C00144300D110
:105A0000A0E00C00170098464EE6664600240027EA
:105A100085E61F000800203FF8400700202B00D13A
:105A20008EE04020C31A99400A43511E8A4100214A
:105A3000174392E6002E14D126005046064362D04A
:105A4000DB43002B5CD18718974292416418524285
:105A5000A418664687E650462043441EA041002411
:105A600060E7574EB4454ED0802636045B4234433F
:105A7000382B00DD7FE01F2B00DD8BE02026270088
:105A80005046F61AB740D84007435046B040461E2D
:105A9000B0410743DC40BF18D6E70D00154300D1E5
:105AA00002E65046801A8245BF41651A7F42ED1BCF
:105AB0008446280200D48DE65046171ABA42924115
:105AC0000C1B5242A41A9846EEE50D00154300D176
:105AD0006BE750466707C00807438020E4080003CF
